:020000040800F2
:1000000028070020450100086B150008FD120008B4
:10001000691500088D010008651A0008000000003D
:100020000000000000000000000000008F15000824
:100030008F010008000000008D15000891150008D0
:100040005F0100085F0100085F0100085F01000810
:100050005F0100085F0100085F0100085F01000800
:100060005F0100085F0100085F0100085F010008F0
:100070005F0100085F0100085F0100085F010008E0
:100080005F0100085F0100085F0100085F010008D0
:100090005F0100085F0100085F0100085F010008C0
:1000A0005F0100085F0100085F0100085F010008B0
:1000B000511600085F0100085F0100085F01000899
:1000C0005F0100085F0100085F0100085F01000890
:1000D0005F0100084D1A0008591A00085F01000866
:1000E0005F0100085F0100085F0100085F01000870
:1000F0005F0100085F0100085F0100085F01000860
:100100005F0100085F0100085F0100085F0100084F
:100110005F0100085F0100085F0100085F0100083F
:100120005F0100085F0100085F0100085F0100082F
:10013000DFF80CD000F018F800480047991C0008C0
:10014000280700200648804706480047FEE7FEE7EC
:10015000FEE7FEE7FEE7FEE7FEE7FEE7FEE7FEE777
:100160000916000831010008064C074D06E0E0685A
:1001700040F0010394E8070098471034AC42F6D3EE
:10018000FFF7DAFF3420000854200008FEE770472C
:100190002DE9F05F90F821100024022903D00421FA
:1001A0008163012485E001680A6822F00E020A607A
:1001B00001680A6822F001020A603F4E3E4FB21504
:1001C000DFF8F4C0DFF8F090DFF8ECA0DFF8E8B07B
:1001D000DFF8E4E00168783F13011502ACF1640C2C
:1001E000A9F15009AAF13C0AABF1280BAEF1140EAB
:1001F0004FF48018B14227D9B9420ED0614512D0D0
:1002000049451DD0514518D0594518D0714501D1E7
:10021000424615E0294EB14201D1012210E0274E9D
:100220001436B14201D110220AE0244E2836B142E0
:1002300006D0224A3C32914201D11A4600E02A46B9
:100240001E49091F0A602BE0B94213D0614517D03F
:10025000494522D051451DD059451DD0714501D188
:1002600042461AE0B14202D14FF0807215E0134EBF
:10027000B14201D1012210E0104E1436B14201D139
:1002800010220AE00D4E2836B14206D00B4A3C320D
:10029000914201D11A4600E02A46074980394A6056
:1002A000012180F82110002180F82010416B01B15C
:1002B00088472046BDE8F09F8000024008040240C5
:1002C0002DE9F84FDFF8B8A100220AF1040B14461B
:1002D00001274FF00F090BF1040E00BF0B6807FA5E
:1002E00004F52B40AB4274D1DFF898C14E68A6EB01
:1002F0000C0866452BD00DDC032E34D005DC36B35C
:10030000012E19D0022E2FD11BE0112E16D0122E45
:100310002AD119E0B8F5881F19D006DCB8F5803F5E
:1003200015D0B8F5801F1FD111E0B8F5001F0ED011
:10033000B8F5041F18D10AE0CA6815E0CA68121D92
:1003400012E0CA6808320FE0CA680C320CE08A6812
:100350002AB1012A4FF0080203D0456104E00422CB
:1003600002E0056100E00022FF2B01D8064601E013
:1003700000F104064FEA840501D9A5F12005D6F85D
:1003800000C009FA05F82CEA080C02FA05F54CEA57
:10039000050CC6F800C04D68ED006AD53A4DAE694F
:1003A00046F00106AE61AD6924F0030605F00105D3
:1003B0000095364D06EB050CDCF80850A6074FEA11
:1003C000167809FA08F6B543314EB04202D100263C
:1003D0001AE04EE02F4EB04201D1012614E02E4E1D
:1003E000B04201D102260FE02C4EB04201D10326CB
:1003F0000AE02B4EB04201D1042605E0294EB0425E
:1004000001D1052600E0062606FA08F62E43CCF8B0
:1004100008604D68DAF80060ED03554601D51E43CB
:1004200000E09E432E604D68AD0305D5DBF800600B
:100430001E43CBF8006004E0DBF800509D43CBF88E
:1004400000504D68DEF80060ED02754601D51E4390
:1004500000E09E432E604D68AD0205D5084D0C3579
:100460002E681E432E6004E0054E0C3635689D4311
:100470003560641C102CFFF431AFBDE8F88F00002C
:100480000004014000001110001002400000014073
:1004900000080140000C0140001001400014014020
:1004A00000180140001C01408068084000D0012075
:1004B0007047C2684A40C26070470AB10161704724
:1004C0000904FBE7014880687047000040000020F5
:1004D0000248816802781144816070474000002022
:1004E000074810B5016841F010010160032000F0D9
:1004F00095F8002000F006F800F024F8002010BD68
:100500000020024070B50D4D04464FF47A712878F2
:10051000B1FBF0F00A490968B1FBF0F000F025FBEF
:1005200048B9102C07D200222146501E00F056F880
:1005300000206C6070BD012070BD000040000020F4
:10054000000000201D4808B5816941F0010181616A
:10055000806900F001000090032000F05FF80022A5
:1005600011466FF00B0000F039F8002211466FF0D1
:100570000A0000F033F8002211466FF0090000F085
:100580002DF800221146501F00F028F800221146D5
:10059000101F00F023F800221146901E00F01EF8F4
:1005A00000221146501E00F019F80548416821F05C
:1005B000E06141F00071416008BD000000100240A0
:1005C0000000014000F01F0201219140400980001D
:1005D00000F1E020C0F8001170470000F0B40E4BAD
:1005E0001B680C46C3F30223C3F10705042D00D991
:1005F0000425191D072901D2002300E0DB1E012676
:1006000006FA05F1491E214099409E40761E16408B
:100610003143F0BC00F0AABF0CED00E0064900F049
:10062000070208684FF6FF03184040EA0220034A19
:1006300010430860704700000CED00E00000FA0570
:100640002DE9F047DFF83C8105460E46D8F800005A
:1006500000F00700B0420CD2D8F8001021F00701DA
:100660003143C8F80010D8F8000000F00700B0428D
:1006700063D12878444C800705D56068A96820F0CC
:10068000F000084360602878C00745D068680128FA
:1006900016D02168022816D0890700294DDA616832
:1006A00021F0030101436160FFF70CFF6968074611
:1006B00041F2883001290FD00229814619D027E064
:1006C00021688903E9E78901E7E700BFFFF7FAFE40
:1006D000C11B494501D918E081466068C0F381001B
:1006E0000128F3D118E000BFFFF7ECFEC11B49451C
:1006F0000BD86068C0F381000228F5D10CE000BF80
:10070000FFF7E0FEC11B494502D90320BDE8F08791
:10071000606810F00C0FF3D1D8F80010404601F0DB
:100720000701B1420BD9016821F007013143016093
:10073000006800F00700B04201D00120E6E7287809
:10074000400705D56068E96820F4E0600843606010
:100750002878000706D56068296920F4605040EACF
:10076000C100606000F03CF86168084AC1F3031101
:10077000515CC840064908600020FFF7C3FE002016
:10078000C4E7000000200240001002401C200008C6
:1007900000000020014800687047000000000020B1
:1007A0000448054900684968044AC1F30221515CC4
:1007B000C840704700000020001002402C200008B4
:1007C0000448054900684968044AC1F3C221515CE4
:1007D000C840704700000020001002402C20000894
:1007E00012A185B00FC98DE80F0014A0144A00684B
:1007F00004905168134801F00C03042B10D0082B0F
:100800000ED1C1F38343C9031DF803000AD5516813
:1008100004AAC1F34041515C0A4A5043B0FBF1F0D5
:1008200005B0704708494843FAE700000203040591
:10083000060708090A0B0C0D0E0F1010010200002C
:100840000010024000127A0000093D002DE9F84F27
:1008500004460078B94DC00748D06868C0F38100ED
:10086000012807D06868C0F38100022809D16868B0
:10087000C00306D52868800338D5606800286FD08B
:1008800034E06068B0F5803F0BD010B1B0F5A02F18
:1008900011D0286820F480302860286820F4802057
:1008A00002E0286840F480302860606888B1FFF773
:1008B00009FE064609E0286840F480202860F0E739
:1008C000FFF700FE801B642875D828688003F7D5E1
:1008D0000CE0FFF7F7FD064605E000BFFFF7F2FD6D
:1008E000801B6428F0D828688003F7D42078944EC1
:1008F00080074FF001094FF000083BD5686810F001
:100900000C0F07D06868C0F38100022809D168681D
:10091000C00306D42868800714D5206901281FD198
:1009200010E02069B0B1C6F80090FFF7CBFD074694
:1009300005E000BFFFF7C6FDC01B0228C4D8286829
:100940008007F7D52868616920F0F80040EAC10007
:1009500028600FE0C6F80080FFF7B4FD074606E008
:10096000E9E000BFFFF7AEFDC01B022823D82868CE
:100970008007F7D4207800072CD57248A169D9B137
:10098000C0F80090FFF79EFD074604E0FFF79AFDD0
:10099000C01B02280FD8686A8007F7D56A484FF451
:1009A000FA510068B0FBF1F0009000BF0098411EC2
:1009B0000091FAD20EE080E0C0F80080FFF782FDDF
:1009C000074604E0FFF77EFDC01B022875D8686A61
:1009D0008007F7D42078400760D5E8690027C00079
:1009E00008D4E86940F08050E861E869012700F028
:1009F0008050009055480168C90513D401688346AA
:100A000041F480710160FFF75DFD824606E000BFA2
:100A1000FFF758FDA0EB0A0064284ED8DBF8000071
:100A2000C005F5D5E06801280AD008B1052813D023
:100A3000286A20F001002862286A20F0040002E001
:100A4000286A40F001002862E06841F2883B98B1D2
:100A5000FFF738FD82460BE0286A40F00400286268
:100A6000EEE700BFFFF72EFDA0EB0A0159455AD86B
:100A7000286A8007F6D50CE0FFF724FD824605E0E2
:100A8000FFF720FDA0EB0A0159454CD8286A8007E2
:100A9000F6D41FB1E86920F08050E861E06988B3BE
:100AA0006968C1F38101022945D00228C6F8608037
:100AB00004D0FFF707FD044638E034E0FFF702FDFD
:100AC000074604E0FFF7FEFCC01B02282BD828686D
:100AD0008001F7D4206AB0F5803F05D16868A1682D
:100AE00020F4003008436860D4E9080108436968CD
:100AF00021F4741108436860C6F86090FFF7E2FCC7
:100B0000044606E015E000BFFFF7DCFC001B0228EE
:100B100009D828688001F7D50BE000BFFFF7D2FCA9
:100B2000001B022802D90320BDE8F88F2868800145
:100B3000F4D40020F8E70120F6E70000001002409E
:100B40000000424280044242000000200070004049
:100B50004FF0E0210428086903D020F00400086168
:100B6000704740F00400FAE7704710B5401EB0F13E
:100B7000807F01D3012010BD4FF0E02460610F2180
:100B8000601700F0F3FC0020A06107202061002026
:100B900010BD10B5FFF7E8FF10BD7047704730B5C6
:100BA00090F83C20012A20D0012280F83C2002232A
:100BB00080F83D3003685C6824F070045C60036872
:100BC0005C680D682C435C6003689C6824F08004BA
:100BD0009C6003689C6849680C439C6080F83D20D9
:100BE000002180F83C10084630BD022030BD10B511
:100BF000040003D094F83D0010B107E0012010BDBF
:100C0000002084F83C00204600F00CF8022084F814
:100C10003D00211D206800F021FD012084F83D00E9
:100C2000002010BD08B50068B0F1804F12D10A480D
:100C3000C16941F00101C161C069002200F00100F9
:100C4000009001211C20FFF7C9FCBDE808401C20D2
:100C5000FFF7B8BC08BD0000001002400168CA6878
:100C600042F00102CA600068016841F001010160C0
:100C70000020704770B5044690F83C00012817D05A
:100C8000012584F83C50022084F83D0020688268E9
:100C900022F0770222F47F4282600868502837D021
:100CA0000DDC202859D005DC88B3102841D151E053
:100CB000022070BD302853D040283AD13FE0602850
:100CC0002ED070280BD0B0F5805F03D0B0F5005F58
:100CD0002FD110E02068816821F0070115E0CB6872
:100CE000D1E90121206800F0FFFC2168886840F00C
:100CF000770088601DE0CB68D1E90121206800F011
:100D0000F3FC2068816841F48041816011E01EE0BD
:100D1000CA684968206800F0F9FC5021206806E0A4
:100D2000CA684968206800F002FD6021206800F070
:100D3000E5FC84F83D50002084F83C0070BDCA6892
:100D40004968206800F0E2FC40212068EFE70021BC
:100D50002068ECE710212068E9E720212068E6E719
:100D600030212068E3E7704770B5044600680169E8
:100D70004FF00005C943890715D4C168C9438907E5
:100D800011D4E91E01610120207720688069800765
:100D9000204602D0FFF7E7FF04E000F098F8204675
:100DA00000F096F8257720680169C943490717D4F0
:100DB000C168C943490713D46FF0040101610220DF
:100DC00020772068806910F4407F204602D0FFF72A
:100DD000CAFF04E000F07BF8204600F079F82577A0
:100DE00020680169C943090716D4C168C9430907C6
:100DF00012D46FF008010161042020772068C069D7
:100E00008007204602D0FFF7AEFF04E000F05FF855
:100E1000204600F05DF8257720680169C943C906BE
:100E200017D4C168C943C90613D46FF0100101611A
:100E3000082020772068C06910F4407F204602D047
:100E4000FFF791FF04E000F042F8204600F040F880
:100E5000257720680169C943C90708D1C168C9431A
:100E6000C90704D1891E0161204600F033F82068CB
:100E70000169C943090609D4C168C943090605D4F3
:100E80006FF0800101612046FFF787FE206801694D
:100E9000C943490609D4C168C943490605D46FF05E
:100EA00040010161204600F033F820680169C94320
:100EB00089060BD4C168C943890607D46FF02001A5
:100EC00001612046BDE87040FFF768BE70BD704705
:100ED000704700000D48418809B1491E41800178E2
:100EE00009B1491E0170818809B1491E8180C188FC
:100EF00009B1491EC1800189012901D9491E018119
:100F00000169012901D9491E016170472C000020A7
:100F10007047704770B5026804461068D16853691D
:100F200010F00F0F51D003F0010501F49076354316
:100F30005DD0C20705D0CA0503D5E26B42F00102BD
:100F4000E263420705D5DA0703D0E26B42F0020202
:100F5000E263820705D5DA0703D0E26B42F00402B0
:100F6000E263020705D5DA0703D0E26B42F008021C
:100F7000E263E26B002A34D0800604D5880602D5ED
:100F8000204600F0FCFB20684069E16BC0F3801054
:100F900001F008010143204624D000F0E2FB206864
:100FA000416949061AD5416921F040014161606BF0
:100FB000A0B11B494163606BFFF7EAF8002810D02D
:100FC000606B416BBDE87040084783060FD58B0608
:100FD0000DD52046BDE8704000F0D1BB2046FFF79C
:100FE00098FF70BDFFF795FF0020E06370BD03061A
:100FF00006D50B0604D52046BDE8704000F0C2BC03
:101000004006F3D54806F1D5D168204621F04001CD
:10101000D160202184F8391000F06FF970BD000014
:101020005317000870B5040004D094F83900002567
:1010300010B106E0012070BD84F83850204600F061
:1010400023F8242084F839002068C16821F4005175
:10105000C160204600F0DEFB2068016921F4904168
:1010600001612068416921F02A0141612068C1685D
:1010700041F40051C160E563202084F8390084F810
:101080003A00002070BD000070B5274E03680024B0
:10109000264902200322264D86B0B3421ED18B6919
:1010A00043F480438B618969039201F48041049188
:1010B0000102CDE9001069462846FFF701F928151D
:1010C000CDE90004694628460294FFF7F9F80022AA
:1010D00003212520FFF782FA252020E0154EB34298
:1010E0001FD1CB6943F40033CB61C969039201F48A
:1010F000003104910421CDE9001069462846FFF72C
:10110000DFF80820CDE90004694628460294FFF77D
:10111000D7F8002204212620FFF760FA2620FFF7E7
:1011200051FA06B070BD00000038014000100240C6
:10113000000801400044004090F83A30202B22D1B2
:10114000F9B1F2B190F83830012B1CD08162828560
:10115000C2850021C163222280F83A2080F838102D
:101160000168CA6842F48072CA6001684A6942F044
:1011700001024A610068C16841F02001C16000209D
:10118000704701207047022070470000F0B4294AE0
:10119000016891420BD1284911F8052F51F8053CFF
:1011A0004C781A554A78521C4A70012235E0234A7D
:1011B00091423DD1204910318C790B684A791A55FA
:1011C0008A7900230124072A24D2DFE802F0040AE6
:1011D0001010101229000A681278552A1BD18C7140
:1011E00019E00A685278072A14D1022210E0521C32
:1011F0000EE00A6814785578D6782C4495783544F2
:101200002C44157952792C44E4B2944202D106223E
:101210008A7100E08B710122491DF0BCFFF78CBF81
:101220000A6892790D2AF5D1034A0C3A1470F1E755
:10123000F0BC70470038014014000020004400401A
:101240002DE9F843044690F839001F4616460D462E
:10125000202850D1A5B19EB194F8380001284AD079
:10126000012084F838004FF00008C4F83C802120A9
:1012700084F83900FFF726F9A6848146E68426E043
:101280000120BDE8F883E08C401EE084A0684B4656
:10129000B0F5805F4FF000024FF0800120460097CC
:1012A00003D000F0A0FBE8B90DE000F09CFBC8B94A
:1012B00028882168C0F308004860206908B16D1CC7
:1012C00005E0AD1C03E0216815F8010B4860E08CD7
:1012D0000028D8D14B46002240212046009700F03C
:1012E00082FB08B10320CCE7202084F8390084F881
:1012F00038800020C5E70220C3E77047FEE7000002
:101300002DE9F043384885B0816941F020018161C1
:10131000816901F020010491816941F0040181613A
:10132000816901F004010491816941F0100181613A
:10133000816901F010010491816941F00801816126
:101340008069DFF8A88000F008004FF480760490F0
:10135000002231464046FFF7B0F801220221404604
:10136000FFF7ABF8DFF88890002231464846FFF7D8
:10137000A4F8012280214846FFF79FF8022511209A
:10138000CDE900500327694603974046FEF798FFD2
:1013900000247020CDE90004694616480294FEF747
:1013A0008FFF4FF60340CDE900046946484602949A
:1013B000FEF786FF0124CDE90064694640460395A7
:1013C000FEF77EFF8020CDE900046946039548467C
:1013D000FEF776FFCDE90064694648460397FEF7BD
:1013E0006FFF05B0BDE8F083001002400008014027
:1013F000000C01400010014010B5184886B04FF0B5
:101400008041016047210024C0E9011440F2E73126
:10141000C0E903148461FFF7EAFB18B14B2110A067
:1014200000F021FB4FF48050009069460B48FFF715
:1014300021FC18B151210AA000F015FB049404A965
:1014400006480594FFF7ABFB18B1582104A000F043
:101450000AFB0248FFF702FC06B010BDE4000020C2
:101460002E2E2F5372632F74696D2E6300000000BF
:10147000164810B5144901604FF4E1314160002174
:1014800081600C22C160C0E904128161C161FFF773
:10149000C9FD18B150210EA000F0E5FA072000F0B8
:1014A00013FC0F4C2060072000F00EFC04F1080133
:1014B000086022683AB130B10122BDE8104003480B
:1014C000491DFFF739BEFEE70038014064000020E7
:1014D0002E2E2F5372632F75736172742E6300006A
:1014E0000C0000201A4810B5184901604FF4E13192
:1014F0004160002181600C22C160C0E90412816159
:10150000C161FFF78FFD18B16A2112A000F0ABFA9C
:10151000072000F0D9FB134C2060072000F0D4FB1B
:1015200004F10801086022687AB170B1552010708A
:1015300022680720507022680D2090710122BDE8BA
:1015400010400348491DFFF7F7BDFEE70044004087
:10155000A40000202E2E2F5372632F7573617274B6
:101560002E6300001C000020FEE770470907090EEB
:10157000002806DA00F00F0000F1E02080F8141DCA
:10158000704700F1E02080F8001470477047704702
:1015900010B5FEF79DFFBDE81040FFF7FABA30B571
:1015A0008FB001210804CDE9001000240294022527
:1015B0000491CDE907504FF4E01009906846FFF719
:1015C00045F900B1FEE70F20CDE90A054FF4806030
:1015D000CDE90C4002210AA80E94FFF731F800B1C2
:1015E000FEE7FFF7D7F84FF47A71B0FBF1F0FFF7A1
:1015F000BCFA0420FFF7ACFA00221146501EFEF799
:10160000EDFF0FB030BD00000D48016841F0010151
:10161000016041680B4A1140416001680A4A11406B
:101620000160016821F480210160416821F4FE011C
:1016300041604FF41F0181600449C0030860704796
:10164000001002400000FFF8FFFFF6FE08ED00E08A
:101650000148FFF789BB0000E4000020F0B50268F4
:101660001C4B1D4D1D4E1E4F1E4C4FF0804C984282
:1016700009D0A04207D0604505D0A84203D0B042AF
:1016800001D0B84204D122F0700E4A6842EA0E023C
:10169000984209D0A04207D0604505D0A84203D0A7
:1016A000B04201D0B84203D122F44075CA682A433F
:1016B00022F080054A692A4302608A68C2620A6889
:1016C0008262984201D0A04201D1096901630121DF
:1016D0004161F0BD002C01400004004000080040C2
:1016E000000C00400034014010B5846842EA032237
:1016F00024F47F440A432243826010BD826822F0B2
:1017000070020A4342F007018160704710B5036A16
:10171000046A24F001040462846924F0F00444EAB9
:10172000021423F00A020A438461026210BD10B55C
:10173000036A23F0100303628369046A23F470438D
:1017400043EA023224F0A00343EA011182610162FC
:1017500010BD10B5406A0021C185C184FFF7D9FBD7
:1017600010BD0168CA6822F49072CA6001684A69B3
:1017700022F001024A61202180F83A10704710B52A
:1017800090F83A10222901D0022010BD8168B1F5ED
:10179000805F11D00169002901681FD0496801F0FC
:1017A0007F03816A4A1C82620B70C18D491E090445
:1017B000090CC18518D02BE00269816A002A0268F1
:1017C000526805D0D2B20A80816A491C8162ECE776
:1017D000C2F308020A80816A891CF7E74A68816AB5
:1017E0004B1C83620A70E0E70168CA6822F020029D
:1017F000CA600168CA6822F48072CA6001684A69D6
:1018000022F001024A61202180F83A10FFF7BEFC65
:10181000002010BD2DE9F041044600680169E2682E
:1018200021F44051114301612169A06808436169B5
:1018300008432168CA6841F20C639A430243CA60B4
:1018400020684169A26921F44071114341614C490A
:1018500020686425322688423CD1FEF7B1FF00EBB8
:10186000C00101EB001061688900B0FBF1F7FEF7E1
:10187000A7FF00EBC00101EB00106168B0468900D2
:10188000B0FBF1F0B0FBF5F06FF01801484307EB47
:10189000800106EB0110B0FBF5F000F0F006FEF75A
:1018A0008FFF00EBC00101EB001061688900B0FB05
:1018B000F1F0B0FBF5F006EB0016FEF781FF00EB50
:1018C000C00101EB001061688900B0FBF1F7FEF781
:1018D00077FF3BE0FEF764FF00EBC00101EB001077
:1018E00061688900B0FBF1F7FEF75AFF00EBC00119
:1018F00001EB00106168B0468900B0FBF1F0B0FB6D
:10190000F5F06FF01801484307EB800106EB01107A
:10191000B0FBF5F000F0F006FEF742FF00EBC0016F
:1019200001EB001061688900B0FBF1F0B0FBF5F04D
:1019300006EB0016FEF734FF00EBC00101EB0010D0
:1019400061688900B0FBF1F7FEF72AFF00EBC001E8
:1019500001EB001061688900B0FBF1F0B0FBF5F01D
:101960006FF01801484307EB800108EB0110B0FB52
:10197000F5F0216800F00F0030448860BDE8F08188
:101980000038014090F83910212901D00220704719
:101990008168B1F5805F016A0BD04A1C026202685F
:1019A00009785160C18C491E0904090CC1840ED00C
:1019B00017E009880268C1F3080151600169002934
:1019C000016A02D0491C0162ECE7891CFBE701684F
:1019D000CA6822F08002CA600068C16841F0400114
:1019E000C160002070472DE9F041984617460E4629
:1019F0000446069D1DE0681C1BD02DB1FEF762FD5C
:101A0000A0EB0800A84214D92068C16821F4D07165
:101A1000C1602068416921F001014161202084F802
:101A2000390084F83A00002084F838000320BDE82B
:101A3000F0812068006836EA000004D00020B84237
:101A4000D9D00020F3E70120F9E700000148FFF7B3
:101A500061BA0000640000200148FFF75BBA000093
:101A6000A4000020FEE7FEE702E008C8121F08C13C
:101A7000002AFAD170477047002001E001C1121F0F
:101A8000002AFBD170470000F0B5534C534F4FF67E
:101A9000FF7326684FF0010CA1F13005A2F130046C
:101AA000202802D0312802D013E0202904D0092DAB
:101AB00008D9202906D00CE0202A03D140F6B83EF0
:101AC000A7F800E0092C04D8B7F800E0BEF1000F39
:101AD0000DD0A0F1320EBEF1070F1BD8092D19D879
:101AE000092C17D83D88ADB186F802C007E086F80A
:101AF00002C0202800D13020202900D130216423C9
:101B00003038584301EB810100EB41001044A0F54F
:101B100004703CE00225B570A2F13105552810D0C3
:101B2000452815D031281DD0532822D02A2830D05E
:101B3000502835D053283AD045280BD06F2842D0B2
:101B400047E02D2945D1082D43D844F401401EE03B
:101B5000502902D06E2931D03BE0082D39D844F409
:101B6000024014E04C2934D1082D32D844F403400B
:101B70000DE0502902D04C2905D02AE0082D28D8A4
:101B800044F4044003E0082D13D844F4054083B224
:101B90001FE02A291DD12A2A1BD14FF4064318E041
:101BA000722916D16F2A14D14FF4074311E04C2942
:101BB0000FD1502A0DD14FF408430AE0642A08D10E
:101BC0004FF4094305E0462903D14C2A01D14FF4D3
:101BD0000A431846F0BD00001C0000203000002021
:101BE00070B51B48017801291ED11A4A00210170E5
:101BF000118000F11C014FF6FF730A6808399578CF
:101C00000C68032D11D0042D0ED11068206090882F
:101C1000A0809079A071096807220F48FFF710FB98
:101C20000E4945F2F050086070BD1579012D01D0C4
:101C30000DB902254570106820609088A0809079C9
:101C4000A0710968BDE8704007220348FFF7F8BAA1
:101C50000800002034000020A40000203C000020E8
:101C600010B50A4C608800280FD14FF4FA706080DC
:101C70004FF480710648FEF71CFC2069012804D14E
:101C80000020044920610220087010BD2C000020B3
:101C9000000C014009000020FEF722FCFFF77FFC4A
:101CA000FFF72EFBFFF71EFCFFF7E2FBFFF7A4FB9D
:101CB000FFF7D6FF00F07CF9FFF792FF00F028F95C
:101CC00000F056F9F4E70000F0B50B30154D20F0A8
:101CD00007010024144A0FE003688B420BD38B42A8
:101CE00005D95E1A43184768C3E9006700E04368F6
:101CF000136002C004E0021D10680028ECD12046E9
:101D0000002802D1286808B10020F0BD064A074823
:101D10001060074A121A22F00702C0E900240120CD
:101D20002860D7E7500000204C0000202C01002044
:101D30002803002001464AF203032020CA1A9942D0
:101D400076D036DCB1F5104F27D017DC48F20243CD
:101D5000A1EB030299426DD008DCB1F5004F5ED0D3
:101D6000891EB1F5004F00D136207047A2F5E06220
:101D7000FE3A59D0022AF8D14620704749F60103AD
:101D8000CA1A994245D00ADC01F6FE71B1F520412C
:101D900041D0A1F5E061FE39EFD139207047A2F5BD
:101DA0004072FF3A4CD0A2F58062013AF6D164202D
:101DB000704741F6FD73D11A9A4233D016DCB2F562
:101DC000406F33D008DC11F5E0521ED0A2F58062DE
:101DD000033AEDD16E207047A2F57062FD3A16D03D
:101DE000A2F54062033AF6D12D207047012923D095
:101DF000A1F58061033921D001F60341B1F580419D
:101E00000BD00129F1D131207047322070473320A7
:101E1000704734207047352070473720704738208E
:101E2000704705E03020FBE75020F9E77220F7E724
:101E30006F20F5E74520F3E75520F1E74C20EFE769
:101E40002A20EDE72DE9F0410025DFF8B4804FF6B8
:101E500003472C4E2C4C09E0D8F800003840FFF71F
:101E600069FF6055352801D1532060554021304627
:101E7000FEF71AFB0028EFD007E000BFD8F80000FB
:101E80003840FFF757FF6119C87020213046FEF730
:101E90000BFB0028F2D006E0D8F800003840FFF72E
:101EA00049FF6119887110213046FEF7FDFA0028BC
:101EB000F2D060198279C178605DFFF7E5FD04EB2F
:101EC00045016D1CEDB24881032DCFD36089A189F6
:101ED000884212D1E18988420FD1A0F1C80240F2B4
:101EE0001F330A499A4204D2B0F55E7F01D0012225
:101EF00000E000220A70BDE8F0814FF6FF70FAE7BB
:101F0000080C014000100140540000200400002093
:101F10000D4803230D4A0178012909D002290BD06D
:101F200003290FD1D18800290CD1017000F010B81D
:101F300003704FF47A7002E0037041F27070D08049
:101F400000F00EB870470000090000202C000020AF
:101F5000012202210148FEF7B0BA0000000801404A
:101F6000002202210148FEF7A8BA00000008014043
:101F700010B50B4C2088012810D10A490878032895
:101F80000CD2401C087008484FF6FF730722016806
:101F90000648FFF755F94FF47A70208010BD000015
:101FA000340000202D0000201C000020A400002090
:101FB0002DE9F041164C2078002826D132202070DF
:101FC000FFF740FFA081618981421ED04FF6FF7369
:101FD00098421AD00F4A6081010A1568E9701168A9
:101FE000087111680D784E78CF7835448E783E446C
:101FF000354428444871116807220748FFF720F943
:102000004FF47A70208100206070BDE8F0810000FC
:102010002C0000201C000020A40000200000000074
:102020000000000001020304060708090000000088
:1020300001020304542000080000002054000000A6
:10204000681A0008A820000854000020D4060000E8
:10205000781A000800A24A040000000000000000F6
:102060000000000007000000000000000700000062
:102070000000000007000000000000000700000052
:102080000000000000000000000000000000000050
:10209000000000000100000010000000000000002F
:0820A000000000000000000038
:0400000508000131BD
:00000001FF
